{
  "_format": "hh-sol-artifact-1",
  "contractName": "Airdrops",
  "sourceName": "contracts/MerkleAirdrop.sol",
  "abi": [
    {
      "inputs": [
        {
          "internalType": "bytes32",
          "name": "_merkleRoot",
          "type": "bytes32"
        }
      ],
      "stateMutability": "nonpayable",
      "type": "constructor"
    },
    {
      "anonymous": false,
      "inputs": [
        {
          "indexed": true,
          "internalType": "address",
          "name": "user",
          "type": "address"
        },
        {
          "indexed": false,
          "internalType": "uint256",
          "name": "_tokenId",
          "type": "uint256"
        }
      ],
      "name": "SuccessfulClaim",
      "type": "event"
    },
    {
      "inputs": [
        {
          "internalType": "address",
          "name": "",
          "type": "address"
        }
      ],
      "name": "alreadyClaimed",
      "outputs": [
        {
          "internalType": "bool",
          "name": "",
          "type": "bool"
        }
      ],
      "stateMutability": "view",
      "type": "function"
    },
    {
      "inputs": [],
      "name": "bAYCaddress",
      "outputs": [
        {
          "internalType": "address",
          "name": "",
          "type": "address"
        }
      ],
      "stateMutability": "view",
      "type": "function"
    },
    {
      "inputs": [
        {
          "internalType": "uint256",
          "name": "_tokenId",
          "type": "uint256"
        },
        {
          "internalType": "bytes32[]",
          "name": "_merkleProof",
          "type": "bytes32[]"
        }
      ],
      "name": "claimAirdrop",
      "outputs": [],
      "stateMutability": "nonpayable",
      "type": "function"
    },
    {
      "inputs": [],
      "name": "merkleRoot",
      "outputs": [
        {
          "internalType": "bytes32",
          "name": "",
          "type": "bytes32"
        }
      ],
      "stateMutability": "view",
      "type": "function"
    },
    {
      "inputs": [],
      "name": "owner",
      "outputs": [
        {
          "internalType": "address",
          "name": "",
          "type": "address"
        }
      ],
      "stateMutability": "view",
      "type": "function"
    },
    {
      "inputs": [
        {
          "internalType": "bytes32",
          "name": "_merkleRoot",
          "type": "bytes32"
        }
      ],
      "name": "updateMerkleRoot",
      "outputs": [],
      "stateMutability": "nonpayable",
      "type": "function"
    },
    {
      "inputs": [
        {
          "internalType": "uint256",
          "name": "_tokenId",
          "type": "uint256"
        }
      ],
      "name": "withdrawRemainingTokens",
      "outputs": [],
      "stateMutability": "nonpayable",
      "type": "function"
    }
  ],
  "bytecode": "0x608060405273bc4ca0eda7647a8ab7c2061c2e118a18a936f13d6000806101000a81548173ffffffffffffffffffffffffffffffffffffffff021916908373ffffffffffffffffffffffffffffffffffffffff16021790555034801561006457600080fd5b506040516110403803806110408339818101604052810190610086919061010f565b8060018190555033600260006101000a81548173ffffffffffffffffffffffffffffffffffffffff021916908373ffffffffffffffffffffffffffffffffffffffff1602179055505061013c565b600080fd5b6000819050919050565b6100ec816100d9565b81146100f757600080fd5b50565b600081519050610109816100e3565b92915050565b600060208284031215610125576101246100d4565b5b6000610133848285016100fa565b91505092915050565b610ef58061014b6000396000f3fe608060405234801561001057600080fd5b506004361061007d5760003560e01c80634783f0ef1161005b5780634783f0ef146100da5780637052dad9146100f65780638da5cb5b14610112578063f54b893b146101305761007d565b80630bcae1ac14610082578063289641ee1461009e5780632eb4a7ab146100bc575b600080fd5b61009c60048036038101906100979190610992565b610160565b005b6100a66104ef565b6040516100b39190610a33565b60405180910390f35b6100c4610513565b6040516100d19190610a67565b60405180910390f35b6100f460048036038101906100ef9190610aae565b610519565b005b610110600480360381019061010b9190610adb565b6105b3565b005b61011a6107fe565b6040516101279190610a33565b60405180910390f35b61014a60048036038101906101459190610b34565b610824565b6040516101579190610b7c565b60405180910390f35b3073ffffffffffffffffffffffffffffffffffffffff1660008054906101000a900473ffffffffffffffffffffffffffffffffffffffff1673ffffffffffffffffffffffffffffffffffffffff16636352211e856040518263ffffffff1660e01b81526004016101d09190610ba6565b602060405180830381865afa1580156101ed573d6000803e3d6000fd5b505050506040513d601f19601f820116820180604052508101906102119190610bd6565b73ffffffffffffffffffffffffffffffffffffffff1614610267576040517f08c379a000000000000000000000000000000000000000000000000000000000815260040161025e90610c60565b60405180910390fd5b6000338460405160200161027c929190610ce9565b6040516020818303038152906040528051906020012090506102e2838380806020026020016040519081016040528093929190818152602001838360200280828437600081840152601f19601f8201169050808301925050505050505060015483610844565b610321576040517f08c379a000000000000000000000000000000000000000000000000000000000815260040161031890610d61565b60405180910390fd5b60001515600360003373ffffffffffffffffffffffffffffffffffffffff1673ffffffffffffffffffffffffffffffffffffffff16815260200190815260200160002060009054906101000a900460ff161515146103b4576040517f08c379a00000000000000000000000000000000000000000000000000000000081526004016103ab90610dcd565b60405180910390fd5b60008054906101000a900473ffffffffffffffffffffffffffffffffffffffff1673ffffffffffffffffffffffffffffffffffffffff166342842e0e3033876040518463ffffffff1660e01b815260040161041193929190610ded565b600060405180830381600087803b15801561042b57600080fd5b505af115801561043f573d6000803e3d6000fd5b505050506001600360003373ffffffffffffffffffffffffffffffffffffffff1673ffffffffffffffffffffffffffffffffffffffff16815260200190815260200160002060006101000a81548160ff0219169083151502179055503373ffffffffffffffffffffffffffffffffffffffff167f202cbacd7e5badcca8e37bda47aefed3ff6e95b4dbf6b2823d445ae9a989a832856040516104e19190610ba6565b60405180910390a250505050565b60008054906101000a900473ffffffffffffffffffffffffffffffffffffffff1681565b60015481565b3373ffffffffffffffffffffffffffffffffffffffff16600260009054906101000a900473ffffffffffffffffffffffffffffffffffffffff1673ffffffffffffffffffffffffffffffffffffffff16146105a9576040517f08c379a00000000000000000000000000000000000000000000000000000000081526004016105a090610e70565b60405180910390fd5b8060018190555050565b3373ffffffffffffffffffffffffffffffffffffffff16600260009054906101000a900473ffffffffffffffffffffffffffffffffffffffff1673ffffffffffffffffffffffffffffffffffffffff1614610643576040517f08c379a000000000000000000000000000000000000000000000000000000000815260040161063a90610e70565b60405180910390fd5b3073ffffffffffffffffffffffffffffffffffffffff1660008054906101000a900473ffffffffffffffffffffffffffffffffffffffff1673ffffffffffffffffffffffffffffffffffffffff16636352211e836040518263ffffffff1660e01b81526004016106b39190610ba6565b602060405180830381865afa1580156106d0573d6000803e3d6000fd5b505050506040513d601f19601f820116820180604052508101906106f49190610bd6565b73ffffffffffffffffffffffffffffffffffffffff161461074a576040517f08c379a000000000000000000000000000000000000000000000000000000000815260040161074190610c60565b60405180910390fd5b60008054906101000a900473ffffffffffffffffffffffffffffffffffffffff1673ffffffffffffffffffffffffffffffffffffffff166342842e0e30600260009054906101000a900473ffffffffffffffffffffffffffffffffffffffff16846040518463ffffffff1660e01b81526004016107c993929190610ded565b600060405180830381600087803b1580156107e357600080fd5b505af11580156107f7573d6000803e3d6000fd5b5050505050565b600260009054906101000a900473ffffffffffffffffffffffffffffffffffffffff1681565b60036020528060005260406000206000915054906101000a900460ff1681565b600082610851858461085b565b1490509392505050565b60008082905060005b84518110156108a0576108918286838151811061088457610883610e90565b5b60200260200101516108ab565b91508080600101915050610864565b508091505092915050565b60008183106108c3576108be82846108d6565b6108ce565b6108cd83836108d6565b5b905092915050565b600082600052816020526040600020905092915050565b600080fd5b600080fd5b6000819050919050565b61090a816108f7565b811461091557600080fd5b50565b60008135905061092781610901565b92915050565b600080fd5b600080fd5b600080fd5b60008083601f8401126109525761095161092d565b5b8235905067ffffffffffffffff81111561096f5761096e610932565b5b60208301915083602082028301111561098b5761098a610937565b5b9250929050565b6000806000604084860312156109ab576109aa6108ed565b5b60006109b986828701610918565b935050602084013567ffffffffffffffff8111156109da576109d96108f2565b5b6109e68682870161093c565b92509250509250925092565b600073ffffffffffffffffffffffffffffffffffffffff82169050919050565b6000610a1d826109f2565b9050919050565b610a2d81610a12565b82525050565b6000602082019050610a486000830184610a24565b92915050565b6000819050919050565b610a6181610a4e565b82525050565b6000602082019050610a7c6000830184610a58565b92915050565b610a8b81610a4e565b8114610a9657600080fd5b50565b600081359050610aa881610a82565b92915050565b600060208284031215610ac457610ac36108ed565b5b6000610ad284828501610a99565b91505092915050565b600060208284031215610af157610af06108ed565b5b6000610aff84828501610918565b91505092915050565b610b1181610a12565b8114610b1c57600080fd5b50565b600081359050610b2e81610b08565b92915050565b600060208284031215610b4a57610b496108ed565b5b6000610b5884828501610b1f565b91505092915050565b60008115159050919050565b610b7681610b61565b82525050565b6000602082019050610b916000830184610b6d565b92915050565b610ba0816108f7565b82525050565b6000602082019050610bbb6000830184610b97565b92915050565b600081519050610bd081610b08565b92915050565b600060208284031215610bec57610beb6108ed565b5b6000610bfa84828501610bc1565b91505092915050565b600082825260208201905092915050565b7f436f6e747261637420646f6573206e6f74206f776e207468697320746f6b656e600082015250565b6000610c4a602083610c03565b9150610c5582610c14565b602082019050919050565b60006020820190508181036000830152610c7981610c3d565b9050919050565b60008160601b9050919050565b6000610c9882610c80565b9050919050565b6000610caa82610c8d565b9050919050565b610cc2610cbd82610a12565b610c9f565b82525050565b6000819050919050565b610ce3610cde826108f7565b610cc8565b82525050565b6000610cf58285610cb1565b601482019150610d058284610cd2565b6020820191508190509392505050565b7f496e76616c6964204d65726b6c652050726f6f66000000000000000000000000600082015250565b6000610d4b601483610c03565b9150610d5682610d15565b602082019050919050565b60006020820190508181036000830152610d7a81610d3e565b9050919050565b7f41697264726f7020616c726561647920636c61696d6564000000000000000000600082015250565b6000610db7601783610c03565b9150610dc282610d81565b602082019050919050565b60006020820190508181036000830152610de681610daa565b9050919050565b6000606082019050610e026000830186610a24565b610e0f6020830185610a24565b610e1c6040830184610b97565b949350505050565b7f4e6f7420746865206f776e657200000000000000000000000000000000000000600082015250565b6000610e5a600d83610c03565b9150610e6582610e24565b602082019050919050565b60006020820190508181036000830152610e8981610e4d565b9050919050565b7f4e487b7100000000000000000000000000000000000000000000000000000000600052603260045260246000fdfea2646970667358221220519c613ff867b1d56ee94f9473bbed3d59572053dd60b141fb7a2b13e29de9b064736f6c63430008180033",
  "linkReferences": {},
  "deployedLinkReferences": {}
}